:020000020000FC
:040000000C9422003A
:04000C000C948B00C5
:100040000C945A000FEF0DBF08E00EBF3F85DB4F49
:10005000656EFE07FF6F777C395E797100E800936B
:10006000610004E0009361000CE004B903E805B905
:100070000FE007B90FE70AB903E000936B0001E056
:10008000009368000E94520010EF20E060E070E0F2
:100090008CE4B0E0CEE1789441E0F0E0ECE45491FF
:1000A0005BB9FFCF05E005BD05EF06BD01E000939C
:1000B0006E0008950F930FB70F93B03009F408C086
:1000C00007E005B9E60F3491E60B3BB9BA9508C0D5
:1000D0000BE005B9E70F3491E70B3BB9B39500C0CE
:1000E00005EF06BDA89A243609F402C023950FC077
:1000F00020E000C0693009F402C0639508C060E0E8
:10010000753009F402C0739502C070E000C00F9111
:100110000FBF0F9118950F930FB70F9323B120FFC7
:1001200003C021FF0EC01EC006B59EE1090FA6B593
:10013000A017E9F700C0A3B1A0FFF6CF1F3F81F4DD
:1001400011C006B59EE1090FA6B5A017E9F700C0DA
:10015000A3B1A1FFF6CF103F09F404C01A9502C065
:10016000139500C018B9D89A0F910FBF0F91189529
:00000001FF
